:020000040800F2
:1000000048090020E101000865080008C50700084C
:1000100061080008A5050008D113000800000000D1
:100020000000000000000000000000002D0B000890
:10003000A905000800000000ED080008910C000868
:10004000FB010008FB010008FB010008FB010008A0
:10005000FB010008FB010008FB010008FB01000890
:10006000FB010008FB010008FB010008FB01000880
:10007000FB010008FB010008FB010008FB01000870
:10008000FB010008FB010008FB010008FB01000860
:10009000FB010008FB010008FB010008FB01000850
:1000A000FB010008FB010008FB010008FB01000840
:1000B000FB010008F50C0008FB010008FB0100082B
:1000C000FB010008FB010008FB010008FB01000820
:1000D000FB010008CD0E0008550F0008CD0F0008E9
:1000E000FB010008FB010008FB010008FB01000800
:1000F000FB010008FB010008FB010008FB010008F0
:10010000FB010008FB010008FB010008FB010008DF
:10011000FB010008FB010008FB010008FB010008CF
:10012000FB010008FB010008FB010008FB010008BF
:1001300000F002F800F045F80AA090E8000C8244B4
:100140008344AAF10107DA4501D100F03AF8AFF291
:10015000090EBAE80F0013F0010F18BFFB1A43F0A5
:10016000010318470017000020170000103A24BFB1
:1001700078C878C1FAD8520724BF30C830C144BF0C
:1001800004680C607047000000230024002500264E
:10019000103A28BF78C1FBD8520728BF30C148BFEA
:1001A0000B607047642900F0BB80782900F0F48070
:1001B000632900F0A281002070471FB51FBD10B554
:1001C00010BD00F0BDF91146FFF7F7FF01F0A0F9EF
:1001D00000F0DBF903B4FFF7F2FF03BC01F036F9DE
:1001E0000948804709480047FEE7FEE7FEE7FEE7CB
:1001F000FEE7FEE7FEE7FEE7FEE7FEE70448054907
:10020000054A064B70470000950C000831010008B4
:100210004803002048090020480500204805002028
:10022000704700000FB4044910B503AA029800F00B
:1002300071F910BC5DF814FB9C0000200FB41CB5D4
:10024000074B06AA7B4469460090059800F033F9F5
:100250000020694600F042F91CBC5DF814FB000068
:10026000950200002DE9F0410E4604460020206270
:100270002046E168884730B3252805D0D4E901211C
:100280009047206A401CF2E7E16820460027884733
:10029000050018D0A5F14100192802D820354FF4E7
:1002A00000673246294620462760FFF77BFF40B1B2
:1002B000012804D0F61D26F007060836D8E7361DBB
:1002C000D6E72846DAE7206ABDE8F08170B50C462B
:1002D0000546012A05D02878800600D5EA69002362
:1002E00002E0012305E05B1C934202D2E05C00289F
:1002F000F9D1A869E618C01AA861286A18442862CA
:100300002846AFF3008004E0D5E9012114F8010B81
:100310009047B442F8D32846AFF3008070BD000088
:100320002DE9F0410646002410687529314616A5CE
:1003300010D0AFF30080002802DA404213A507E096
:1003400031688A0701D512A502E0490704D511A535
:10035000012401E0AFF3008000210A2206F1240706
:1003600009E0B0FBF2FCB0FBF2F302FB1C00303002
:1003700078541846491C0028F3D123462A463046B3
:10038000BDE8F04100F038B8000000002D0000008A
:100390002B0000002000000070B504460D462146E9
:1003A0001068AFF300802188090502D50F4A7A440E
:1003B00002E00E4A7A440E32002104F1240305E0E3
:1003C00000F00F060009965D5E54491C0028F7D125
:1003D00020780023000704D5702D02D009B1022334
:1003E00011322046BDE8704000F006B88A140000C3
:1003F00070477047704770472DE9F0470D469946A2
:100400009246044600F124080168880604D5E06994
:1004100021F01001216000E00120A84201DD471B0E
:1004200000E00027A1697A1902EB0900081AA0610F
:100430002078C00602D42046AFF30080002608E0F2
:10044000D4E901211AF806009047206A401C761C66
:1004500020624E45F4DB2078C0060AD52046AFF373
:10046000008006E0D4E9012130209047206A401C3A
:100470002062381EA7F10107F4DC07E0D4E901216E
:1004800018F805009047206A401C2062281EA5F13C
:100490000105F3DC2046AFF300802078000602D58A
:1004A0000220BDE8F0870120FBE7000001694A1C3B
:1004B00002610878704700B58FB0CDE901310021A5
:1004C000059105497944CDE9031011466846FFF7C7
:1004D000C9FE0FB000BD0000E5FFFFFF0A6802F88B
:1004E000010B0A60704710B5436913B1AFF3008088
:1004F00001E0FFF7EBFE012010BD127800F12401AE
:100500000A7000224A700122EDE711684FF0FF32B5
:10051000E9E70000074B70B50D467B44FFF7CBFFC2
:100520000446284600F008F810B14FF0FF3070BDC7
:10053000204670BDD70F0000007B00F080007047A0
:10054000754600F02BF8AE4605006946534620F08C
:100550000700854618B020B5FFF750FEBDE82040E3
:100560004FF000064FF000074FF000084FF0000B6F
:1005700021F00701AC46ACE8C009ACE8C009ACE822
:10058000C009ACE8C0098D46704710B50446AFF30A
:1005900000802046BDE81040FFF71CBE00487047B1
:1005A000E402002000BFFEE77047000008B501210B
:1005B000402000F0ADF90220ADF8000010208DF8C9
:1005C000030003208DF802006946044800F008F893
:1005D0000221024800F0D8F808BD000000180140D0
:1005E0002DE9F041024600250026002000230024CA
:1005F000002791F803C00CF00F0591F803C00CF030
:10060000100CBCF1000F03D091F802C04CEA0505B4
:1006100091F800C0BCF1000F31D0146800202BE02D
:100620004FF0010C0CFA00F3B1F800C00CEA03061D
:100630009E4220D183004FF00F0C0CFA03F7BC430D
:1006400005FA03FC4CEA040491F803C0BCF1280F3E
:1006500006D14FF0010C0CFA00FCC2F814C00AE0FD
:1006600091F803C0BCF1480F05D14FF0010C0CFA12
:1006700000FCC2F810C0401C0828D1D31460B1F8A7
:1006800000C0BCF1FF0F34DD546800202EE000F103
:10069000080C4FF0010808FA0CF3B1F800C00CEA9E
:1006A00003069E4221D183004FF00F0C0CFA03F792
:1006B000BC4305FA03FC4CEA040491F803C0BCF106
:1006C000280F05D100F1080C08FA0CF8C2F81480C4
:1006D00091F803C0BCF1480F07D100F1080C4FF0AE
:1006E000010808FA0CF8C2F81080401C0828CED384
:1006F0005460BDE8F0810000F0B50A4600230024F4
:100700000021002500F00046B6F1004F02D11D4E39
:10071000F16901E01B4E7168C0F3034583B200F438
:100720004016B6F5401F08D121F07061154E76686D
:1007300026F07066134F7E6012E000F48016B6F566
:10074000801F06D1032606FA05F4A14341F070612B
:1007500006E0460D360103FA06F6B14341F070613A
:1007600022B1460D360103FA06F6314300F0004689
:10077000B6F1004F02D1034EF16101E0014E71600C
:10078000F0BD0000000001400161704770B50246F5
:100790000C46FF25FF2309E012F8010B80EA050152
:1007A0000648405C80EA03050548435C201EA4F12E
:1007B0000106F4B2F0D143EA052070BD3C160008F2
:1007C0003C17000800BFFEE708B50121802000F0BB
:1007D0009FF80C20ADF8000048208DF80300694612
:1007E0000148FFF7FDFE08BD001C014008B50121CE
:1007F000412000F08DF801210A48FFF77DFF2020FD
:10080000ADF8000010208DF8030003208DF80200E1
:1008100069460548FFF7E4FE20210348FFF7B4FFCF
:1008200008BD000000023000001801400949098895
:10083000491C084A118011460988814208D10021CB
:1008400011800549096881F00101044AC2F8941138
:10085000704700001400002094012342000023424E
:1008600000BFFEE77047000070B5002100230F2293
:10087000C47804B3154C246804F4E064C4F5E0645F
:10088000210AC1F10403CA40447804FA03F18478D0
:100890001440214309010E4C0678A155047804F058
:1008A0001F050124AC4005786D11AD0005F1E02570
:1008B000C5F8004109E0047804F01F050124AC40AC
:1008C000044D0678761145F8264070BD0CED00E029
:1008D00000E400E080E100E002490143024A1160C7
:1008E000704700000000FA050CED00E070470000C2
:1008F00029B1064AD2690243044BDA6104E0034A93
:10090000D2698243014BDA61704700000010024057
:1009100029B1064A92690243044B9A6104E0034AF2
:1009200092698243014B9A617047000000100240B7
:1009300030B500210022002400232D4D6D6805F004
:100940000C0121B1042905D0082923D105E0294D46
:10095000056022E0274D05601FE0254D6D6805F418
:100960007012234D6D6805F48034022505EB924228
:100970001CB9214D554305600BE01D4D6D6805F414
:1009800000351DB11C4D5543056002E0194D55431E
:10099000056002E0174D056000BF00BF144D6D6893
:1009A00005F0F0010909154D6B5C0568DD404560F7
:1009B0000F4D6D6805F4E061090A104D6B5C4568E8
:1009C000DD4085600A4D6D6805F46051C90A0B4D24
:1009D0006B5C4568DD40C560054D6D6805F44041C0
:1009E000890B074D6B5CC568B5FBF3F5056130BD40
:1009F0000010024000127A0000093D00A200002011
:100A0000B200002010B586B0044601212420FFF773
:100A10007FFF01214804FFF76BFF01210846FFF724
:100A200077FF8020ADF8140010208DF81700032008
:100A30008DF8160005A92248FFF7D2FD0420ADF875
:100A4000140018208DF8170005A91E48FFF7C8FDEF
:100A50000820ADF8140004208DF8170005A91948E6
:100A6000FFF7BEFD26208DF8000002208DF8010062
:100A70008DF8020001208DF803006846FFF7F4FEB0
:100A800001940020ADF80800ADF80A00ADF80C00A4
:100A9000ADF810000C20ADF80E0001A90A4800F0D6
:100AA00075FB012240F22551074800F04AFB012165
:100AB000054800F003FB00200449086006B010BDA3
:100AC0000014014000080140004400409C81224283
:100AD0002DE9FC4706460F4614461D468DF800607A
:100AE0008DF8017020128DF80200E0B28DF803003D
:100AF00028128DF80400E8B28DF80500062168463A
:100B0000FFF744FE8046C8F3072A08F0FF098DF876
:100B100006A08DF807900821684600F009F801202A
:100B200001490870BDE8FC871800002070470000EC
:100B300070B505460E4601200E49086000F0B4FC71
:100B400000240CE000BF40210B4800F0C3FA00284D
:100B5000F9D0295D084800F08AFB601CC4B2B44299
:100B6000F0DB012000F0A0FC0020044908700149DE
:100B7000086070BD9C8122420044004016000020A5
:100B800010B500F001F810BD0CB5002001900090E8
:100B90003348006840F480303149086000BF304875
:100BA000006800F4003000900198401C019000980B
:100BB00018B90198B0F5A06FF1D12948006800F488
:100BC000003010B10120009001E00020009000985A
:100BD000012843D12348006840F0100021490860F3
:100BE0000846006820F0030008600846006840F0EE
:100BF000020008601A484068194948600846406881
:100C000048600846406840F4806048600846406894
:100C100020F47C1048600846406840F4E8104860C2
:100C20000846006840F08070086000BF0C4800680B
:100C300000F000700028F9D00948406820F0030057
:100C4000074948600846406840F00200486000BF1D
:100C50000348406800F00C000828F9D10CBD0000E2
:100C60000010024000200240042808D14FF0E0218B
:100C7000096941F004014FF0E022116107E04FF0F3
:100C8000E021096921F004014FF0E0221161704771
:100C90007047000010B51348006840F0010011498A
:100CA000086008464068104908400E4948600846F8
:100CB00000680E4908400B4908600846006820F4A7
:100CC000802008600846406820F4FE0048604FF429
:100CD0001F008860FFF754FF4FF000600449086070
:100CE00010BD0000001002400000FFF8FFFFF6FEFC
:100CF00008ED00E010B50121084800F050F860B19F
:100D0000012000F035FB4FF4FA70FFF78FFD00F083
:100D1000A1FB0121014800F033F810BD00040040A0
:100D20007FB505460C4601210220FFF7E1FDA8B280
:100D3000ADF80800A0B2ADF804000020ADF80A003C
:100D4000ADF8060001A90D4800F044F80122114653
:100D50000A4800F035F81D208DF8000003208DF8BA
:100D6000010001208DF802008DF803006846FFF7AE
:100D70007BFD0121014800F006F87FBD0004004022
:100D8000CA430282704721B1028842F00102028008
:100D900004E002884FF6FE731A400280704730B5B7
:100DA0000246002000230024158A05EA01039589E4
:100DB00005EA010413B10CB1012000E0002030BDB0
:100DC0001AB183890B43838102E083898B4383813A
:100DD00070470000002202881D4B98420ED01D4B28
:100DE00098420BD0B0F1804F08D01B4B984205D0F1
:100DF0001A4B984202D01A4B984204D14FF68F7387
:100E00001A404B881A43174B984207D0164B98420A
:100E100004D04FF6FF431A40CB881A4302808B88D8
:100E200083850B8803850A4B98420BD0094B984267
:100E300008D00E4B984205D00D4B984202D00D4B76
:100E4000984201D10B7A0386012383827047000008
:100E5000002C014000340140000400400008004024
:100E6000000C004000100040001400400040014011
:100E7000004401400048014010B510480078E0B936
:100E80000F480068012809D100200D49086002239D
:100E9000002203211846FFF71BFE0EE008480068F9
:100EA00058B901200649086006A0FFF7BBF90123E5
:100EB000002203210520FFF70BFE10BD18000020C3
:100EC000C0000020B0B1C6F80A00000010B540F222
:100ED00025511D4800F00BF910B31B4800F0C2F972
:100EE000C4B21A48008800F40040C8B91748008806
:100EF00000F4804060B10A2C03D000201349088020
:100F000020E01248008840F400401049088019E0B1
:100F10000D2C06D10D48008840F480400B49088014
:100F200010E00A480088C0F30D0009490C54074836
:100F30000088401C0549088008460088C72801DD54
:100F40000020088010BD000000380140A0000020F3
:100F50001A02002010B540F225510B4800F0C7F8E6
:100F600080B1094800F07EF9C4B2084800784028F2
:100F700008DA074805490978445404480078401CB9
:100F80000249087010BD0000004400401600002017
:100F9000C400002000BF0549098801F04001002974
:100FA000F9D00249091D0880704700000048004040
:100FB00010B503460C46002200BF985CFFF7EAFF1D
:100FC000501C82B2A242F8DB10BD000010B540F206
:100FD00025510D4800F08BF8A0B10B4800F042F904
:100FE000C4B20A480068642809DA09480749096850
:100FF000445406480068401C0449086002E0002090
:101000000249086010BD0000004800402000002098
:101010008401002010B586B0044601210820FFF7A6
:1010200077FC01218804FFF763FC4FF48060ADF882
:10103000140003208DF8160018208DF8170005A95C
:101040001C48FFF7CDFA4FF40060ADF814000420FF
:101050008DF8170005A91748FFF7C2FA27208DF869
:10106000000004208DF801008DF8020001208DF8A9
:1010700003006846FFF7F8FB01940020ADF8080074
:10108000ADF80A00ADF80C00ADF810000C20ADF87A
:101090000E0001A9084800F079F8012240F225511C
:1010A000054800F04EF80121034800F007F806B0AB
:1010B00010BD0000000C01400048004021B18289B1
:1010C00042F40052828104E082894DF6FF731A4097
:1010D0008281704702460020B1F5007F00D100BF39
:1010E00013880B400BB1012000E00020704770B561
:1010F0000246002400230025002040F66A16B14273
:1011000000D100BFC1F3421501F01F03012606FA0A
:1011100003F3012D02D19689334006E0022D02D15E
:10112000168A334001E0968A33400C12012606FAF3
:1011300004F41688344013B10CB1012000E0002003
:1011400070BDF0B50346002400260025002040F6BF
:101150006A17B94200D100BF1846C1F3421401F02A
:101160001F06012707FA06F5012C01D10C3004E017
:10117000022C01D1103000E014301AB107682F435F
:10118000076002E00768AF430760F0BD2DE9F04754
:1011900086B005460E460024A24600BFA1460027A1
:1011A000B08900B100BF2F462C8A4CF6FF70044076
:1011B000F08804432C82AC894EF6F3100440B088CA
:1011C00031890843718908430443AC81AC8A4FF6E6
:1011D000FF400440B0890443AC8201A8FFF7A8FB9C
:1011E0001F48874202D1DDF810A001E0DDF80CA015
:1011F000A88900F4004040B10AEBCA0000EB0A10D5
:1012000031684900B0FBF1F807E00AEBCA0000EBD7
:101210000A1031688900B0FBF1F86420B8FBF0F0E7
:1012200004012009642101FB1089A88900F4004011
:1012300040B1322000EBC900B0FBF1F000F0070034
:10124000044308E0322000EB09106421B0FBF1F008
:1012500000F00F0004432C8106B0BDE8F0870000C9
:101260000038014001468888C0F308007047C1F388
:10127000080282807047000070B52348007800287B
:1012800041D00020204908704021204800F054F847
:101290001F49087008460078801EC1B21B48FFF73E
:1012A00075FA0446C4F30725E6B219480078801E93
:1012B0001649085CA84223D115480078401E085CF6
:1012C000B0421DD11248007800F044F900211048C6
:1012D0000078401E0D4A11540D480078801E1154AC
:1012E00010460378027801780AA0FEF79BFF0848B1
:1012F00001780648FFF75CFE00200B49087002E009
:101300000AA0FEF78FFF70BD1700002044010020E7
:101310001E000020CAFDBEDD3A2025642C202025B9
:10132000632020202578000018000020BDD3CAD5F6
:10133000B4EDCEF30D0A000010B503460A4800785C
:10134000814201DD08480178002205E00748805C01
:1013500018705B1C501CC2B28A42F7DB0020024CA2
:101360002070084610BD000016000020C4000020B8
:101370001349097800291EDD12490978104A1278AC
:10138000914207D00E4909780E4A117000210E4A89
:10139000117013E00C49097803290FDA0A4909781A
:1013A0000144094A117011460978032906DB01211D
:1013B000064A117002E00021024A117070470000D5
:1013C000160000201C0000201D0000201700002037
:1013D00000BFFEE710B54FF4E130FFF71BFE0E2112
:1013E0001548FFF7E5FD4FF47A7000F05DF809212C
:1013F0001248FFF7DDFD4FF47A7000F055F829210F
:101400000F48FFF7D5FD4FF47A7000F04DF84FF418
:101410007A7000F049F80B210A48FFF7C9FD4FF434
:101420007A7000F041F828210748FFF7C1FD4FF41A
:101430007A7000F039F810BD24000020320000203E
:101440003B000020640000206F000020014600BF28
:101450007047000002480068401C0149086070475E
:10146000BC00002010B56FF00400FFF7FDFB0A4838
:1014700000680A49B0FBF1F0094908700846007895
:1014800000EB4001C1EBC0104FF6FF7101EAC00054
:101490000449088010BD00000000002000127A00FE
:1014A000980000209A0000200146114A12884A4301
:1014B0004FF0E0235A6100229A611A46126942F005
:1014C00001021A6100BF4FF0E022106900F0010232
:1014D0001AB100F48032002AF5D04FF0E0221269F0
:1014E00022F001024FF0E0231A6100229A61704756
:1014F0009A00002000BF054A128802F04002002A2C
:10150000F9D0C2B2014B1B1D1A8070470038014050
:10151000FFF7A8FF4FF44070FFF7DEF94FF4E1301A
:1015200000F03CF8FFF762F9FFF74EF9FFF73EF8DD
:101530004FF41650FFF766FA472140F2E730FFF705
:10154000EFFBFFF747FF03E0FFF796FEFFF794FC82
:10155000FAE7000010B5044628210A48FFF728FDE5
:101560004FF47A70FFF7A0FF224607A10A48FEF762
:1015700065FE32210848FFF71BFD4FF47A70FFF734
:1015800093FF10BD6F00002041542B434950534539
:101590004E443D25640D0A00E801002010B586B0D8
:1015A0000446012144F20400FFF7B2F94FF4007041
:1015B000ADF8140003208DF8160018208DF81700E0
:1015C00005A91C48FFF70CF84FF48060ADF8140033
:1015D00004208DF8170005A91648FFF701F825200B
:1015E0008DF8000003208DF801008DF80200012025
:1015F0008DF803006846FFF737F901940020ADF835
:101600000800ADF80A00ADF80C00ADF810000C2091
:10161000ADF80E0001A90848FFF7B8FD012240F21D
:1016200025510548FFF78DFD01210348FFF746FDD1
:1016300006B010BD000801400038014000C18140E3
:1016400001C0804101C0804100C1814001C0804192
:1016500000C1814000C1814001C0804101C0804182
:1016600000C1814000C1814001C0804100C1814072
:1016700001C0804101C0804100C1814001C0804162
:1016800000C1814000C1814001C0804100C1814052
:1016900001C0804101C0804100C1814000C1814042
:1016A00001C0804101C0804100C1814001C0804132
:1016B00000C1814000C1814001C0804101C0804122
:1016C00000C1814000C1814001C0804100C1814012
:1016D00001C0804101C0804100C1814000C1814002
:1016E00001C0804101C0804100C1814001C08041F2
:1016F00000C1814000C1814001C0804100C18140E2
:1017000001C0804101C0804100C1814001C08041D1
:1017100000C1814000C1814001C0804101C08041C1
:1017200000C1814000C1814001C0804100C18140B1
:1017300001C0804101C0804100C1814000C0C101A1
:10174000C30302C2C60607C705C5C404CC0C0DCD31
:101750000FCFCE0E0ACACB0BC90908C8D81819D9A1
:101760001BDBDA1A1EDEDF1FDD1D1CDC14D4D515D1
:10177000D71716D6D21213D311D1D010F03031F1C1
:1017800033F3F23236F6F737F53534F43CFCFD3DF1
:10179000FF3F3EFEFA3A3BFB39F9F83828E8E929E1
:1017A000EB2B2AEAEE2E2FEF2DEDEC2CE42425E591
:1017B00027E7E62622E2E323E12120E0A06061A101
:1017C00063A3A26266A6A767A56564A46CACAD6DB1
:1017D000AF6F6EAEAA6A6BAB69A9A86878B8B97921
:1017E000BB7B7ABABE7E7FBF7DBDBC7CB47475B551
:1017F00077B7B67672B2B373B17170B05090915141
:101800009353529296565797559594549C5C5D9D70
:101810005F9F9E5E5A9A9B5B995958988848498960
:101820004B8B8A4A4E8E8F4F8D4D4C8C4484854510
:10183000874746868242438341818040303132333C
:1018400034353637383941424344454640305800F4
:101850003031323334353637383961626364656626
:10186000403078008418000800000020C400000008
:101870006C01000848190008C4000020840800001A
:101880008801000800A24A040000000000000000D7
:101890000102030406070809000000000000000020
:1018A000000000000000000041542B43574D4F44FE
:1018B000453D310D0A0041542B5253540D0A00414D
:1018C000542B43574A41503D226F66666963652D2C
:1018D000343035222C22776A793133303138303246
:1018E00035313538220D0A0041542B4349465352B5
:1018F0000D0A0041542B43495053544152543D2248
:10190000544350222C2233392E3130302E38392E88
:101910003132222C383030300D0A00000000000037
:1019200000000000000000000000010203040102AA
:101930000304060708090204060800000500000069
:0819400000000000010000009E
:0400000508000131BD
:00000001FF
